:030000000206D520
:03000B0002049854
:03001B000204DFFD
:03002B000204F3D9
:10002E00C0E0C0D0C000C001C002E4F538F539F51B
:10003E003AF53BF53C7A20E533A2E779047830E6D1
:10004E0033F608D9FA79057838E636D4F608D9F9B0
:10005E00DAE5D002D001D000D0D0D0E022C0E0C08E
:10006E00D0C000C001C002E4F538F539F53AF53BD1
:10007E00F53C7A20E533A2E779047830E633F608CA
:10008E00D9FA79057838C0D0E6243320E70224D097
:10009E0020E30224FDD0D033F608D9EADAD6D00216
:1000AE00D001D000D0D0D0E022C0E0C0D0C000C07F
:1000BE0001C0027A207905C3783CE613C0D030E740
:1000CE000224D030E30224FDF618D0D0D9EC790406
:1000DE007833E613F618D9FADADBD002D001D00065
:1000EE00D0D0D0E022C0E0C0D0E5302534F530E5E8
:1000FE00313535F531E5323536F532E5333537F50F
:10010E0033D0D0D0E022C0E0C0D0C3E5309534F576
:10011E0030E5319535F531E5329536F532E53395E5
:10012E0037F533D0D0D0E022C0E0C0D0C3E5309553
:10013E0034E5319535E5329536E53395379200D075
:10014E00D0D0E022C0E0C0D0C3E5349530E535957F
:10015E0031E5369532E53795339200D0D0D0E02296
:10016E00C0E0C0D0C200C3E53495307014E53595BB
:10017E0031700EE53695327008E53795337002D240
:10018E0000D0D0D0E02212016E20000302015222D4
:10019E0012016E20000302013622C0E0C0F0C0D072
:1001AE00C000C001C002C003E5308534F0A4F8A938
:1001BE00F0E5318534F0A429F9E435F0FAE530851F
:1001CE0035F0A429F9E5F03AFAE433FBE53285344B
:1001DE00F0A42AFAE5F03BFBE5318535F0A42AFAC6
:1001EE00E5F03BFBE5308536F0A42AFAE5F03BFB63
:1001FE00E5338534F0A42BFBE5328535F0A42BFBDB
:10020E00E5318536F0A42BFBE5308537F0A42BFBCA
:10021E008B338A3289318830D003D002D001D0009E
:10022E00D0D0D0F0D0E022C0E0C0D0C000C001C01D
:10023E0002C003C0047C20E4F8F9FAFBC3E53033B6
:10024E00F530E53133F531E53233F532E53333F55B
:10025E0033E833F8E933F9EA33FAEB33FBC3E895C5
:10026E0034E99535EA9536EB95374013E89534F831
:10027E00E99535F9EA9536FAEB9537FB433001DC13
:10028E00BBD004D003D002D001D000D0D0D0E02219
:10029E0085303485313585323685333722E530C5A4
:1002AE0034F530E531C535F531E532C536F532E593
:0602BE0033C537F53322C1
:1002C400C00078B10000D8FCD00022C000C0017981
:1002D4002D78A6D8FED9FADAF6D001D00022D2B30E
:1002E4001202C4C2B322A2E792B7A2E692B6A2E572
:1002F40092B5A2E492B41202E21202C4A2E392B74B
:10030400A2E292B6A2E192B5A2E092B41202E22273
:10031400D2B20202EAC2B20202EAC2B374331203D4
:10032400197433120319743212031974281203193D
:10033400740C1203197401120319C0027A02120216
:10034400CFD00222E4936006120314A380F6224461
:10035400404480020319C0E0E8C4540F443012033F
:1003640014E8540F4430120314D0E022496E73652C
:10037400727420436F696E002020546F20506C61AA
:10038400792020004E6F207369676E616C202020F5
:100394002020250050313A200050323A0050333AA0
:1003A400200050343A00202000446574656374656D
:1003B4006420200057690020205370656564696ECD
:1003C40067207570212020004C5544444444414129
:1003D400434352524953535300202046696E616C83
:1003E40020526F756E6420202000202020202020C1
:1003F40020202020202020202020200020202052E7
:100404006F756E642054776F2020202000202020F8
:1004140000C000A83C12035AD000C000A83B12033D
:100424005AD000C000A83A12035AD000C000A8391C
:1004340012035AD000C000A83812035AD00022E593
:100444008954F04401F589758CEB758A6E75F4EB6B
:1004540075F26ED2A9D28C22758CD6758AB975F4D0
:10046400D675F2B90204C5758CE4758A7175F4E425
:1004740075F2710204C5758CC8758AE675F4C87581
:10048400F2E60204C5758CDF758A3D75F4DF75F2FA
:100494003D0204C530022C2004BE2005CA2006D625
:1004A4002007E230010F758CEB758A6E75F4EB75DD
:1004B400F26E0204C5758CEA758A6775F4EA75F202
:1004C40067B29132E58954F04401758DEB758B6EFA
:1004D40075F5EB75F36ED2ABD28E22300810E5447D
:1004E4002401D4F544B49906C2087400F54432C218
:1004F400CF054C300830E5442401D4F544200B0FDB
:10050400200C06B49920020516B4601A020516B42C
:1005140045147400F544E5452401D4F545B40306B7
:10052400C2087400F545327AB079FA78A6D8FED9B3
:10053400FADAF62275C80075CB0075CA00D2AD226E
:10054400E4780079007A007B10E5CD33F5CDE54CF5
:1005540033F54CE838D4F8E939D4F9EA3AD4FADB7B
:10056400E822EA540F4430120314E9C4540F44300F
:10057400120314E9540F4430120314E8C4540F4412
:1005840030120314E8540F443012031422D2CA2048
:10059400A4FD85CD4075410175428785CC43C2CA0F
:1005A400228540308541318542328543337534FD9F
:1005B4007535437536037537001201A87534C37554
:1005C400359E7536267537001200F3853040853127
:1005D4004185324285334322C002AA401202CFD061
:1005E40002C002AA411202CFD002C002AA421202E1
:1005F400CFD002C002AA431202CFD002221205DCDD
:100604001205DC1205DC1205DC22C0027A64120237
:10061400CFD002C0027A641202CFD002C0027A6440
:100624001202CFD002C0027A641202CFD002C002FA
:100634007A641202CFD002C0027A321202CFD00200
:1006440022C0027A641202CFD002C0027A6412027B
:10065400CFD002C0027A641202CFD00222C0027A42
:10066400641202CFD002C0027A321202CFD0022228
:1006740012031EC0E0740114120355D0E0C083C0FD
:1006840082C0E0900370120348D0E0D082D083C0CF
:10069400E0740114120353D0E0C083C082C0E09020
:1006A400037C120348D0E0D082D083D203120443E7
:1006B400120591120538D2AFC209C2017400F54483
:1006C4007400F545C20CC20BC20DC20EC20FC2109B
:1006D4002275817F120674D2A0D2A1C0E0740114E5
:1006E400120355D0E0C083C082C0E0900398120387
:1006F40048D0E0D082D083C0E0740A14120355D0ED
:10070400E0C083C082C0E090039D120348D0E0D0D3
:1007140082D083C0E0740114120353D0E0C083C0BC
:1007240082C0E09003A1120348D0E0D082D083C0FD
:10073400E0740A14120353D0E0C083C082C0E09076
:1007440003A6120348D0E0D082D083C0E07407141B
:10075400120355D0E0C083C082C0E090041112039C
:1007640048D0E0D082D083C0E0740714120353D081
:10077400E0C083C082C0E0900411120348D0E0D0EE
:1007840082D0837400F54D7400F54E7400F54F74F7
:1007940000F550C2CA75CC0075CD00754C0020A080
:1007A400FD30A0FD7800D2CA20A0FD30A0FDD8F80D
:1007B400C2CA85CC3085CD317532007533007534AD
:1007C4006075350975360075370012011420091358
:1007D400C0E0740E14120355D0E0C000A84D1203FB
:1007E4005AD000200A4B30024820034530011D75C1
:1007F40034787535057536007537001201523000AE
:100804002DE54D2401D4F54DD20A8025E54DB400E3
:1008140002801E75347875350575360075370012FB
:10082400015230000C154DD20A800602084202081B
:100834006AE54DB405F5D20C020842020849E54DBB
:10084400B410F8D20BB4151EC0E0740E1412035584
:10085400D0E0C083C082C0E09003B8120348D0E067
:10086400D082D083D209C2CA75CC0075CD00754C34
:100874000020A1FD30A1FD7800D2CA20A1FD30A145
:10088400FDD8F8C2CA85CC3085CD317532007533B8
:10089400007534507535147536007537001201141F
:1008A400200913C0E0740514120355D0E0C000A859
:1008B4004E12035AD000200A483002452003423029
:1008C400011D753440753506753600753700120103
:1008D4005230002DE54E2401D4F54ED20A8022E593
:1008E4004EB40002801B75344075350675360075AC
:1008F4003700120152300009154ED20A8003020952
:1009040011E54EB405F8D20C8003020918E54EB483
:1009140010F8D20BE54EB4151EC0E0740514120392
:1009240055D0E0C083C082C0E09003B8120348D021
:10093400E0D082D083D209C2CA75CC0075CD0075CF
:100944004C002080FD3080FD7800D2CA2080FD302C
:1009540080FDD8F8C2CA85CC3085CD31753200759A
:10096400330075344075351F753600753700120134
:1009740014200913C0E0740514120353D0E0C0001E
:10098400A84F12035AD000200A48300245200342DF
:1009940030011D75347875350575360075370012CC
:1009A400015230002DE54F2401D4F54FD20A8022A4
:1009B400E54FB40002801B75347875350575360033
:1009C400753700120152300009154FD20A80030214
:1009D40009E2E54EB405F8D20C80030209E9E54FBB
:1009E400B410F8D20BE54FB4151EC0E07405141210
:1009F4000353D0E0C083C082C0E09003B812034820
:100A0400D0E0D082D083D209C2CA75CC0075CD00A3
:100A1400754C002081FD3081FD7800D2CA2081FD13
:100A24003081FDD8F8C2CA85CC3085CD317532000D
:100A34007533007534E075352E7536007537001240
:100A44000114200913C0E0740E14120353D0E0C043
:100A540000A85012035AD000200A4830024520034F
:100A64004230011D7534E87535037536007537005D
:100A740012015230002DE5502401D4F550D20A80E1
:100A840022E550B40002801B7534E87535037536D1
:100A9400007537001201523000091550D20A800344
:100AA400020AB3E550B405F8D20C8003020ABAE591
:100AB40050B410F8D20BE550B4151EC0E0740E14F7
:100AC400120353D0E0C083C082C0E09003B8120385
:100AD40048D0E0D082D083D20920097530030302C4
:100AE4000AE9020B58D201D207D202120661C202ED
:100AF400C0027A141202CFD002D202120661C202DC
:100B0400120661D202120661C202120661D202D238
:100B140004120661C202C204C0027A141202CFD0C7
:100B240002D202120645C202C0027A141202CFD0C7
:100B340002D202D205120645C202C205120645D2ED
:100B440002D206120645120645C206C207C2038037
:100B540003020B74200817C2021205A51206011223
:100B640005A5E541A2E39201D202D208C20A80029D
:050B7400C20202079718
:00000001FF
